:100000000C9462000C948A000C948A000C948A0070
:100010000C948A000C948A000C948A000C948A0038
:100020000C948A000C948A000C948A000C948A0028
:100030000C948A000C948A000C948A000C948A0018
:100040000C94A7040C948A000C9475040C944F042F
:100050000C948A000C948A000C948A000C948A00F8
:100060000C948A000C948A000000000024002700F1
:100070002A0000000000250028002B0000000000DE
:1000800023002600290004040404040404040202DA
:100090000202020203030303030301020408102007
:1000A0004080010204081020010204081020000012
:1000B0000008000201000003040700000000000027
:1000C0000000F10411241FBECFEFD8E0DEBFCDBF8A
:1000D00011E0A0E0B1E0E2E1F4E102C005900D9290
:1000E000AC39B107D9F722E0ACE9B1E001C01D920B
:1000F000AA36B207E1F710E0C2E6D0E004C02197CB
:10010000FE010E94C007C136D107C9F70E943C0515
:100110000C94070A0C940000CF92DF92EF92FF92AA
:100120000F931F93CF93DF936C017A018B01C0E093
:10013000D0E0CE15DF0589F0D8016D918D01D60193
:10014000ED91FC910190F081E02DC6010995892B7C
:1001500011F47E0102C02196ECCFC701DF91CF914F
:100160001F910F91FF90EF90DF90CF900895FC01C9
:10017000918D828D981761F0828DDF01A80FB11DDE
:100180005D968C91928D9F5F9F73928F90E0089502
:100190008FEF9FEF0895FC01918D828D981731F0BC
:1001A000828DE80FF11D858D90E008958FEF9FEF10
:1001B0000895FC01918D228D892F90E0805C9F4FE6
:1001C000821B91098F739927089585EB91E00E9416
:1001D000D90021E0892B09F420E0822F0895FC0149
:1001E000848DDF01A80FB11DA35ABF4F2C91848DC0
:1001F00090E001968F739927848FA689B7892C93F5
:10020000A089B1898C9180648C93938D848D98138F
:1002100006C00288F389E02D80818F7D8083089558
:10022000EF92FF920F931F93CF93DF93EC0181E046
:10023000888F9B8D8C8D981305C0E889F989808102
:1002400085FD24C0F62E0B8D10E00F5F1F4F0F733E
:100250001127E02E8C8DE8120CC00FB607FCFACFE8
:10026000E889F989808185FFF5CFCE010E94EF00F2
:10027000F1CF8B8DFE01E80FF11DE35AFF4FF082A5
:100280000B8FEA89FB898081806207C0EE89FF8934
:100290006083E889F98980818064808381E090E0CF
:1002A000DF91CF911F910F91FF90EF900895CF9321
:1002B000DF93EC01888D8823C9F0EA89FB8980816E
:1002C00085FD05C0A889B9898C9186FD0FC00FB640
:1002D00007FCF5CF808185FFF2CFA889B9898C9181
:1002E00085FFEDCFCE010E94EF00E7CFDF91CF91E8
:1002F000089580E090E0892B29F00E94E5008111AB
:100300000C9400000895833081F028F4813099F036
:100310008230A1F008958730A9F08830B9F0843098
:10032000D1F4809180008F7D03C0809180008F7711
:1003300080938000089584B58F7702C084B58F7D47
:1003400084BD08958091B0008F7703C08091B00084
:100350008F7D8093B0000895CF93DF93282F30E0F6
:10036000F901E255FF4F8491F901E656FF4FD49110
:10037000F901EA57FF4FC491CC2391F081110E94FB
:100380008301EC2FF0E0EE0FFF1FE458FF4FA59123
:10039000B491EC91ED2381E090E021F480E002C083
:1003A00080E090E0DF91CF9108951F93CF93DF938A
:1003B000282F30E0F901E255FF4F8491F901E6560C
:1003C000FF4FD491F901EA57FF4FC491CC23C9F0F4
:1003D000162F81110E948301EC2FF0E0EE0FFF1F1A
:1003E000EE58FF4FA591B4918FB7F894111105C045
:1003F0009C91ED2FE095E92302C0EC91ED2BEC935D
:100400008FBFDF91CF911F910895CF93DF9390E03D
:10041000FC01E656FF4F2491FC01EA57FF4F8491FF
:10042000882361F190E0880F991FFC01E859FF4F84
:10043000C591D491FC01EE58FF4FA591B491611183
:1004400009C09FB7F8948881209582238883EC9116
:100450002E230BC0623061F49FB7F8943881822F4D
:10046000809583238883EC912E2B2C939FBF06C00D
:100470008FB7F894E8812E2B28838FBFDF91CF911F
:1004800008953FB7F89480919D0190919E01A091AD
:100490009F01B091A00126B5A89B05C02F3F19F080
:1004A0000196A11DB11D3FBFBA2FA92F982F8827F4
:1004B000820F911DA11DB11DBC01CD0142E0660F4F
:1004C000771F881F991F4A95D1F708958F929F92A1
:1004D000AF92BF92CF92DF92EF92FF926B017C01BD
:1004E0000E9441024B015C01C114D104E104F104FA
:1004F000F1F00E944102DC01CB0188199909AA0997
:10050000BB09883E9340A105B10570F321E0C21AF2
:10051000D108E108F10888EE880E83E0981EA11C3E
:10052000B11CC114D104E104F10419F7DDCFFF902F
:10053000EF90DF90CF90BF90AF909F908F900895F5
:10054000CF93DF93EC0160E08E810E94D50161E0E2
:100550008E810E94D50160E08E810E94D5018BE8DA
:1005600091E00197F1F7DF91CF910895CF92DF925B
:10057000EF92FF920F931F93CF93DF937C016C0157
:1005800087E0C80ED11CC0E0D0E0062F10E0B80113
:100590000C2E02C0759567950A94E2F76170F6011A
:1005A00081916F010E94D5012196C430D10579F760
:1005B000C701DF91CF911F910F91FF90EF90DF90D6
:1005C000CF900C94A002CF92DF92EF92FF920F9304
:1005D0001F93CF93DF93EC01F62E642F8C810E9442
:1005E000D5018D818F3F19F060E00E94D5018F8584
:1005F0000F2D10E084FF25C06E0187E0C80ED11CCE
:10060000E12CF12CB8010E2C02C0759567950A9467
:10061000E2F76170F60181916F010E94D501FFEF51
:10062000EF1AFF0A88E0E816F10461F7CE01DF91C6
:10063000CF911F910F91FF90EF90DF90CF900C948E
:10064000A002B80184E0759567958A95E1F7CE011F
:100650000E94B6026F2DCE01DF91CF911F910F91B5
:10066000FF90EF90DF90CF900C94B60241E00E9493
:10067000E30281E090E0089540E00C94E3028430CE
:1006800008F083E090916502891710F08FEF890FD1
:10069000E82FF0E0EE5AFD4F6489606882E592E051
:1006A0000C943C0361E00E943C038BE39FE10197C3
:1006B000F1F70895EF92FF920F931F93CF93DF937B
:1006C000EC01623018F08F8588608F876B8B1C8AF5
:1006D00080E48D8B80E18E8B80E58F8B61E08C8157
:1006E0000E9405028D818F3F19F061E00E94050292
:1006F00061E08E810E9405027E0187E0E80EF11C18
:1007000000E010E08F8584FD03C084E090E002C02B
:1007100088E090E0081719074CF461E0F701819137
:100720007F010E9405020F5F1F4FECCF8BE39DE01E
:100730000197F1F760E08C810E94D50160E08E8125
:100740000E94D5018D818F3F19F060E00E94D50194
:100750006F8564FD1DC063E0CE010E94B6020BE40C
:1007600016E4C8010197F1F763E0CE010E94B602DA
:10077000C8010197F1F763E0CE010E94B60283E55C
:1007800092E00197F1F762E0CE010E94B60216C036
:100790006062CE010E943C038BE496E40197F1F77E
:1007A0006F856062CE010E943C0383E592E0019771
:1007B000F1F76F856062CE010E943C036F85606235
:1007C000CE010E943C0384E0888B6CE0CE010E9445
:1007D0003C03CE010E94520382E0898B66E0CE0189
:1007E000DF91CF911F910F91FF90EF900C943C03FC
:1007F000009769F0FC0101900020E9F73197AF0103
:10080000481B590BBC0182E592E00C948C0080E0FF
:1008100090E008950C94F8038F929F92AF92BF924C
:100820000F931F93CF93DF93CDB7DEB7A1970FB68A
:10083000F894DEBF0FBECDBF19A2423008F44AE0E3
:100840008E010F5D1F4F842E912CA12CB12CA50180
:1008500094010E949E07E62FB901CA0101501109B7
:10086000EA3014F4E05D01C0E95CD801EC93232B7D
:10087000242B252B61F7C8010E94F803A1960FB61F
:10088000F894DEBF0FBECDBFDF91CF911F910F91C6
:10089000BF90AF909F908F9008950E94020A1F9280
:1008A0000F920FB60F9211242F933F934F935F93A4
:1008B0006F937F938F939F93AF93BF93EF93FF9328
:1008C00085EB91E00E94EF00FF91EF91BF91AF9116
:1008D0009F918F917F916F915F914F913F912F9158
:1008E0000F900FBE0F901F9018951F920F920FB68A
:1008F0000F9211242F938F939F93EF93FF93E09187
:10090000C501F091C6018081E091CB01F091CC014D
:1009100082FD12C090818091CE018F5F8F732091F4
:10092000CF01821751F0E091CE01F0E0EB54FE4F81
:10093000958F8093CE0101C08081FF91EF919F91AF
:100940008F912F910F900FBE0F901F9018951F92AF
:100950000F920FB60F9211242F933F938F939F9373
:10096000AF93BF938091A1019091A201A091A301A7
:10097000B091A40130919C0123E0230F2D3720F486
:100980000196A11DB11D05C026E8230F0296A11DE9
:10099000B11D20939C018093A1019093A201A0938B
:1009A000A301B093A40180919D0190919E01A0911B
:1009B0009F01B091A0010196A11DB11D80939D01E1
:1009C00090939E01A0939F01B093A001BF91AF911E
:1009D0009F918F913F912F910F900FBE0F901F907D
:1009E0001895E5EBF1E01382128288EE93E0A0E027
:1009F000B0E084839583A683B78384E091E09183FC
:100A0000808385EC90E09587848784EC90E09787DD
:100A1000868780EC90E0918B808B81EC90E0938BCB
:100A2000828B82EC90E0958B848B86EC90E0978BA8
:100A3000868B118E128E138E148EE2E5F2E01382F5
:100A4000128284E191E09183808382E084838FEF3E
:100A5000858383E0868384E0878385E0808786E0E2
:100A6000818787E082871386148615861686178607
:100A700061E0CF010C945A03789484B5826084BD00
:100A800084B5816084BD85B5826085BD85B5816092
:100A900085BD80916E00816080936E001092810010
:100AA00080918100826080938100809181008160CB
:100AB000809381008091800081608093800080918C
:100AC000B10084608093B1008091B0008160809318
:100AD000B00080917A00846080937A0080917A00DF
:100AE000826080937A0080917A00816080937A009E
:100AF00080917A00806880937A001092C10060E053
:100B00008EE00E94050260E08FE00E94050261E035
:100B10008DE00E940502E091C501F091C60182E0DE
:100B20008083E091C101F091C2011082E091C30184
:100B3000F091C4018FEC80831092CD01E091C90146
:100B4000F091CA0186E08083E091C701F091C8016D
:100B5000808180618083E091C701F091C80180812C
:100B600088608083E091C701F091C801808180682E
:100B70008083E091C701F091C80180818F7D8083DF
:100B800062E082E592E00E945A0382E592E00E94D0
:100B9000520380E00E943F0388E191E00E940A0432
:100BA00081E00E943F0389E291E00E940A0460ED27
:100BB00077E080E090E00E94660282E592E00E9489
:100BC0005203C1E0D0E08EE00E94AC01892B39F4E1
:100BD0008091B3019091B401892B09F487C18FE012
:100BE0000E94AC01892B39F48091AF019091B00142
:100BF000892B09F48FC1E090B301F090B40121E09A
:100C0000E216F10409F06EC08091AF019091B0013D
:100C1000019709F067C08091B1019091B201609194
:100C2000AD017091AE01681779072CF49C01261B69
:100C3000370BB90105C08617970784F4681B790B39
:100C4000072E000C880B990B0E94DB086093A9010A
:100C50007093AA018093AB019093AC0120E030E047
:100C60004AE754E46091A9017091AA018091AB0117
:100C70009091AC010E9438089B01AC016093A901DE
:100C80007093AA018093AB019093AC0160E070E097
:100C900080EA90E40E94380820E030E041E655E424
:100CA0000E94900920E030E04AE754E40E943808AE
:100CB0004B015C0120E030E0A9010E94330887FD70
:100CC00009C08092A5019092A601A092A701B092BE
:100CD000A80108C01092A5011092A6011092A701C8
:100CE0001092A80120E030E0A9016091A501709167
:100CF000A6018091A7019091A8010E94330881115B
:100D000013C081E00E943F03EF2849F48091AF01B6
:100D10009091B001892B19F48AE391E002C08BE431
:100D200091E00E940A04DFC082E592E00E94520333
:100D300080E00E943F038CE591E00E940A04C0908D
:100D4000A501D090A601E090A701F090A801A7010D
:100D50009601C701B6010E94FD09882319F083E6B8
:100D600091E01AC046015701E894B7F82FEF3FEF22
:100D70004FE75FE7C501B4010E94FD0981110FC073
:100D80002FEF3FEF4FE75FE7C501B4010E94330843
:100D900018162CF487E691E00E94F80366C02FEF46
:100DA0003FEF4FE75FE4C701B6010E948B091816B9
:100DB0001CF48BE691E0F0CF2FEF3FEF4FE75FECB5
:100DC000C701B6010E94330887FDF3CF20E030E071
:100DD000A901C701B6010E94330887FF0FC0E09147
:100DE0005202F09153020190F081E02D6DE282E514
:100DF00092E00995F7FAF094F7F8F0942DEC3CECBA
:100E00004CE45DE3C701B6010E94C7074B015C01DA
:100E10000E94AA086B017C010E94D9089B01AC01C9
:100E2000C501B4010E94C6074B015C014AE0C7013D
:100E3000B6010E940C04E0915202F091530201901D
:100E4000F081E02D6EE282E592E0099520E030E04D
:100E500040E251E4C501B4010E9490090E94AA0831
:100E600080E090E04AE00E940C048FE691E00E944E
:100E70000A0481E00E943F0320E030E048E452E4AD
:100E80006091A5017091A6018091A7019091A801A0
:100E90000E948B0918164CF487E791E00E940A041F
:100EA00061E08DE00E94D50104C089E891E00E94D4
:100EB0000A0468EB7BE080E090E00E94660260E05C
:100EC0008DE00E94D5011092A5011092A60110920A
:100ED000A7011092A8011092B4011092B3011092D0
:100EE000B0011092AF010E9479016DCE2FB7F89436
:100EF0008091A1019091A201A091A301B091A401C0
:100F00002FBF9093B2018093B101D093B401C093ED
:100F1000B30165CE2FB7F8948091A1019091A20101
:100F2000A091A301B091A4012FBF9093AE01809333
:100F3000AD01D093B001C093AF015DCEA1E21A2EF6
:100F4000AA1BBB1BFD010DC0AA1FBB1FEE1FFF1F6D
:100F5000A217B307E407F50720F0A21BB30BE40BBD
:100F6000F50B661F771F881F991F1A9469F7609504
:100F70007095809590959B01AC01BD01CF010895BE
:100F8000EE0FFF1F0590F491E02D09945058BB27F8
:100F9000AA270E94DE070C9451090E94430938F0E9
:100FA0000E944A0920F039F49F3F19F426F40C946A
:100FB00040090EF4E095E7FB0C943A09E92F0E94F2
:100FC000620958F3BA17620773078407950720F080
:100FD00079F4A6F50C9484090EF4E0950B2EBA2F43
:100FE000A02D0B01B90190010C01CA01A00111242F
:100FF000FF27591B99F0593F50F4503E68F11A16DB
:10100000F040A22F232F342F4427585FF3CF46956B
:1010100037952795A795F0405395C9F77EF41F168D
:10102000BA0B620B730B840BBAF09150A1F0FF0F57
:10103000BB1F661F771F881FC2F70EC0BA0F621F43
:10104000731F841F48F4879577956795B795F79533
:101050009E3F08F0B0CF9395880F08F09927EE0FC8
:101060009795879508950E94160908F481E00895E0
:101070000E944C080C9451090E944A0958F00E94A1
:10108000430940F029F45F3F29F00C943A095111CB
:101090000C9485090C9440090E94620968F3992315
:1010A000B1F3552391F3951B550BBB27AA27621764
:1010B0007307840738F09F5F5F4F220F331F441F71
:1010C000AA1FA9F335D00E2E3AF0E0E832D09150A5
:1010D0005040E695001CCAF72BD0FE2F29D0660F92
:1010E000771F881FBB1F261737074807AB07B0E8D5
:1010F00009F0BB0B802DBF01FF2793585F4F3AF0DB
:101100009E3F510578F00C943A090C9485095F3F95
:10111000E4F3983ED4F3869577956795B795F79560
:101120009F5FC9F7880F911D9695879597F9089548
:10113000E1E0660F771F881FBB1F621773078407E4
:10114000BA0720F0621B730B840BBA0BEE1F88F7F3
:10115000E09508950E946A0988F09F5798F0B92F8A
:101160009927B751B0F0E1F0660F771F881F991FDC
:101170001AF0BA95C9F714C0B13091F00E948409F1
:10118000B1E008950C948409672F782F8827B85F01
:1011900039F0B93FCCF3869577956795B395D9F734
:1011A0003EF490958095709561957F4F8F4F9F4F3E
:1011B0000895E89409C097FB3EF49095809570954A
:1011C00061957F4F8F4F9F4F9923A9F0F92F96E993
:1011D000BB279395F695879577956795B795F11108
:1011E000F8CFFAF4BB0F11F460FF1BC06F5F7F4FA5
:1011F0008F4F9F4F16C0882311F096E911C07723B7
:1012000021F09EE8872F762F05C0662371F096E8BF
:10121000862F70E060E02AF09A95660F771F881F8E
:10122000DAF7880F9695879597F90895990F000832
:10123000550FAA0BE0E8FEEF16161706E807F907A8
:10124000C0F012161306E407F50798F0621B730B43
:10125000840B950B39F40A2661F0232B242B252BC4
:1012600021F408950A2609F4A140A6958FEF811D67
:10127000811D089597F99F6780E870E060E0089508
:101280009FEF80EC089500240A941616170618069E
:101290000906089500240A9412161306140605067A
:1012A0000895092E0394000C11F4882352F0BB0F0B
:1012B00040F4BF2B11F460FF04C06F5F7F4F8F4F6E
:1012C0009F4F089557FD9058440F551F59F05F3FA9
:1012D00071F04795880F97FB991F61F09F3F79F058
:1012E00087950895121613061406551FF2CF4695DA
:1012F000F1DF08C0161617061806991FF1CF86955C
:101300007105610508940895E894BB27662777273F
:10131000CB0197F908950E94160908F48FEF0895FC
:101320000E94A3090C9451090E94430938F00E94BD
:101330004A0920F0952311F00C943A090C944009C5
:1013400011240C9485090E94620970F3959FC1F3E2
:10135000950F50E0551F629FF001729FBB27F00D63
:10136000B11D639FAA27F00DB11DAA1F649F6627B8
:10137000B00DA11D661F829F2227B00DA11D621F07
:10138000739FB00DA11D621F839FA00D611D221FC1
:10139000749F3327A00D611D231F849F600D211DA5
:1013A000822F762F6A2F11249F5750409AF0F1F028
:1013B00088234AF0EE0FFF1FBB1F661F771F881F91
:1013C00091505040A9F79E3F510580F00C943A0986
:1013D0000C9485095F3FE4F3983ED4F386957795A6
:1013E0006795B795F795E7959F5FC1F7FE2B880F37
:1013F000911D9695879597F908950E941609880B77
:10140000990B089581E090E0F8940C94070AF89401
:02141000FFCF0C
:101412000000000010018C00D900B700CB0057017A
:101422000000000036038C002057454C434F4D45C9
:1014320020546F20204D792000596F7554756265D4
:1014420020204368616E6E656C004E6F206361728E
:10145200202064657465637465640053656172631A
:1014620068696E672E2E2E2020202000537065653D
:10147200643A006E616E00696E66006F7666004BBC
:101482006D2F487220200020204F76657220537005
:10149200656564696E6720200020204E6F726D6161
:0C14A2006C205370656564202020000061
:00000001FF
